{
  "_format": "hh-sol-artifact-1",
  "contractName": "CoinFlip",
  "sourceName": "contracts/CoinFlip.sol",
  "abi": [
    {
      "inputs": [],
      "stateMutability": "nonpayable",
      "type": "constructor"
    },
    {
      "anonymous": false,
      "inputs": [
        {
          "indexed": true,
          "internalType": "address",
          "name": "user",
          "type": "address"
        },
        {
          "indexed": false,
          "internalType": "bool",
          "name": "choice",
          "type": "bool"
        },
        {
          "indexed": false,
          "internalType": "uint256",
          "name": "amount",
          "type": "uint256"
        }
      ],
      "name": "BetPlaced",
      "type": "event"
    },
    {
      "anonymous": false,
      "inputs": [
        {
          "indexed": true,
          "internalType": "address",
          "name": "user",
          "type": "address"
        },
        {
          "indexed": false,
          "internalType": "bool",
          "name": "win",
          "type": "bool"
        },
        {
          "indexed": false,
          "internalType": "uint256",
          "name": "amount",
          "type": "uint256"
        }
      ],
      "name": "Result",
      "type": "event"
    },
    {
      "inputs": [
        {
          "internalType": "bool",
          "name": "_choice",
          "type": "bool"
        }
      ],
      "name": "flipCoin",
      "outputs": [],
      "stateMutability": "payable",
      "type": "function"
    },
    {
      "inputs": [],
      "name": "owner",
      "outputs": [
        {
          "internalType": "address",
          "name": "",
          "type": "address"
        }
      ],
      "stateMutability": "view",
      "type": "function"
    },
    {
      "inputs": [],
      "name": "withdraw",
      "outputs": [],
      "stateMutability": "nonpayable",
      "type": "function"
    },
    {
      "stateMutability": "payable",
      "type": "receive"
    }
  ],
  "bytecode": "0x608060405234801561001057600080fd5b50336000806101000a81548173ffffffffffffffffffffffffffffffffffffffff021916908373ffffffffffffffffffffffffffffffffffffffff160217905550610853806100606000396000f3fe6080604052600436106100385760003560e01c80633ccfd60b146100445780637b8ff38f1461005b5780638da5cb5b146100775761003f565b3661003f57005b600080fd5b34801561005057600080fd5b506100596100a2565b005b61007560048036038101906100709190610418565b610199565b005b34801561008357600080fd5b5061008c6103df565b60405161009991906105e5565b60405180910390f35b60008054906101000a900473ffffffffffffffffffffffffffffffffffffffff1673ffffffffffffffffffffffffffffffffffffffff163373ffffffffffffffffffffffffffffffffffffffff1614610130576040517f08c379a000000000000000000000000000000000000000000000000000000000815260040161012790610629565b60405180910390fd5b60008054906101000a900473ffffffffffffffffffffffffffffffffffffffff1673ffffffffffffffffffffffffffffffffffffffff166108fc479081150290604051600060405180830381858888f19350505050158015610196573d6000803e3d6000fd5b50565b6000349050600066038d7ea4c680009050808210156101ed576040517f08c379a00000000000000000000000000000000000000000000000000000000081526004016101e490610669565b60405180910390fd5b6002826101fa919061069a565b47101561023c576040517f08c379a000000000000000000000000000000000000000000000000000000000815260040161023390610649565b60405180910390fd5b3373ffffffffffffffffffffffffffffffffffffffff167fe57fa5a543ebcdebf2a7d7102ac913e14454cec006468e43a6916e95bdfcea9e8484604051610284929190610600565b60405180910390a260004442336040516020016102a3939291906105a8565b6040516020818303038152906040528051906020012060001c90506000806002836102ce919061076a565b1490508415158115151415610386573373ffffffffffffffffffffffffffffffffffffffff166108fc600286610304919061069a565b9081150290604051600060405180830381858888f1935050505015801561032f573d6000803e3d6000fd5b503373ffffffffffffffffffffffffffffffffffffffff167f4657d02194371648ea3899d7b7054fec17ce786998a24063bcb019108493316c600186604051610379929190610600565b60405180910390a26103d8565b3373ffffffffffffffffffffffffffffffffffffffff167f4657d02194371648ea3899d7b7054fec17ce786998a24063bcb019108493316c6000866040516103cf929190610600565b60405180910390a25b5050505050565b60008054906101000a900473ffffffffffffffffffffffffffffffffffffffff1681565b60008135905061041281610806565b92915050565b60006020828403121561042a57600080fd5b600061043884828501610403565b91505092915050565b61044a816106f4565b82525050565b61046161045c826106f4565b61073c565b82525050565b61047081610706565b82525050565b6000610483602183610689565b91507f4f6e6c7920746865206f776e65722063616e2077697468647261772066756e6460008301527f73000000000000000000000000000000000000000000000000000000000000006020830152604082019050919050565b60006104e9602083610689565b91507f496e73756666696369656e742062616c616e636520696e20636f6e74726163746000830152602082019050919050565b6000610529603a83610689565b91507f416d6f756e74206d7573742062652067726561746572207468616e206f72206560008301527f7175616c20746f206d696e696d756d2062657420616d6f756e740000000000006020830152604082019050919050565b61058b81610732565b82525050565b6105a261059d82610732565b610760565b82525050565b60006105b48286610591565b6020820191506105c48285610591565b6020820191506105d48284610450565b601482019150819050949350505050565b60006020820190506105fa6000830184610441565b92915050565b60006040820190506106156000830185610467565b6106226020830184610582565b9392505050565b6000602082019050818103600083015261064281610476565b9050919050565b60006020820190508181036000830152610662816104dc565b9050919050565b600060208201905081810360008301526106828161051c565b9050919050565b600082825260208201905092915050565b60006106a582610732565b91506106b083610732565b9250817fffffffffffffffffffffffffffffffffffffffffffffffffffffffffffffffff04831182151516156106e9576106e861079b565b5b828202905092915050565b60006106ff82610712565b9050919050565b60008115159050919050565b600073ffffffffffffffffffffffffffffffffffffffff82169050919050565b6000819050919050565b60006107478261074e565b9050919050565b6000610759826107f9565b9050919050565b6000819050919050565b600061077582610732565b915061078083610732565b9250826107905761078f6107ca565b5b828206905092915050565b7f4e487b7100000000000000000000000000000000000000000000000000000000600052601160045260246000fd5b7f4e487b7100000000000000000000000000000000000000000000000000000000600052601260045260246000fd5b60008160601b9050919050565b61080f81610706565b811461081a57600080fd5b5056fea26469706673582212201895f49a80d7971c10afbe5d20b51bd5c7cbb1719e0bb9dd4b7ce24ad655447a64736f6c63430008000033",
  "linkReferences": {},
  "deployedLinkReferences": {}
}